:100000000C945E000C9486000C9486000C94860080
:100010000C9486000C9486000C9486000C94860048
:100020000C9486000C9486000C9486000C94860038
:100030000C9486000C9486000C9486000C94860028
:100040000C941C040C9486000C94EA030C94C403D6
:100050000C9486000C9486000C9486000C94860008
:100060000C9486000C948600000000080002010039
:100070000003040700000000000000000000000072
:10008000250028002B0000000000240027002A0083
:10009000040404040404040402020202020203032E
:1000A0000303030301020408102040800102040836
:1000B00010200102040810206604310611241FBE1E
:1000C000CFEFD8E0DEBFCDBF11E0A0E0B1E0E4E3C8
:1000D000F5E102C005900D92A632B107D9F721E0F3
:1000E000A6E2B1E001C01D92A53EB207E1F710E023
:1000F000CDE5D0E004C02197FE010E947B08CC35FD
:10010000D107C9F70E94A1040C948D0A0C94000039
:1001100090E0FC01EC55FF4F2491FC01E057FF4FAC
:100120008491882399F090E0880F991FFC01EA5789
:10013000FF4FA591B491FC01E458FF4F8591949134
:100140008FB7F894EC91E22BEC938FBF0895CF9288
:10015000DF92EF92FF920F931F93CF93DF936C0187
:100160007A018B01C0E0D0E0CE15DF0589F0D8011F
:100170006D918D01D601ED91FC910190F081E02D02
:10018000C6010995892B11F47E0102C02196ECCF9E
:10019000C701DF91CF911F910F91FF90EF90DF90FA
:1001A000CF900895089580E090E00895FC01538D6C
:1001B000448D252F30E0842F90E0821B930B541741
:1001C00010F0CF96089501970895FC01918D828DCE
:1001D000981761F0828DDF01A80FB11D5D968C919B
:1001E000928D9F5F9F73928F90E008958FEF9FEFA6
:1001F0000895FC01918D828D981731F0828DE80F62
:10020000F11D858D90E008958FEF9FEF0895FC011B
:10021000918D228D892F90E0805C9F4F821B9109E8
:100220008F73992708958EE391E00E94070121E0E2
:10023000892B09F420E0822F0895FC01848DDF01D1
:10024000A80FB11DA35ABF4F2C91848D90E0019649
:100250008F739927848FA689B7892C93A089B18938
:100260008C9180648C93938D848D981306C0028842
:10027000F389E02D80818F7D80830895EF92FF9236
:100280000F931F93CF93DF93EC0181E0888F9B8DB9
:100290008C8D981305C0E889F989808185FD24C07B
:1002A000F62E0B8D10E00F5F1F4F0F731127E02EFE
:1002B0008C8DE8120CC00FB607FCFACFE889F989DB
:1002C000808185FFF5CFCE010E941D01F1CF8B8D7E
:1002D000FE01E80FF11DE35AFF4FF0820B8FEA8910
:1002E000FB898081806207C0EE89FF896083E8898D
:1002F000F98980818064808381E090E0DF91CF91F3
:100300001F910F91FF90EF900895CF93DF93EC0131
:10031000888D8823C9F0EA89FB89808185FD05C025
:10032000A889B9898C9186FD0FC00FB607FCF5CF5F
:10033000808185FFF2CFA889B9898C9185FFEDCFA7
:10034000CE010E941D01E7CFDF91CF91089590E08B
:10035000FC01E859FF4F3491FC01EC55FF4F24910B
:10036000FC01E057FF4FE491EE2309F43BC0332337
:1003700039F1333091F038F43130A9F0323001F5F1
:1003800084B58F7D12C0373091F03830A1F0343011
:10039000B9F4809180008F7D03C0809180008F77B9
:1003A000809380000DC084B58F7784BD09C0809193
:1003B000B0008F7703C08091B0008F7D8093B00034
:1003C000F0E0EE0FFF1FE458FF4FA591B4918FB7F7
:1003D000F894EC91611103C020952E2301C02E2BBF
:1003E0002C938FBF08953FB7F89480912B01909183
:1003F0002C01A0912D01B0912E0126B5A89B05C01E
:100400002F3F19F00196A11DB11D3FBFBA2FA92F93
:10041000982F8827820F911DA11DB11DBC01CD0110
:1004200042E0660F771F881F991F4A95D1F70895FC
:100430008F929F92AF92BF92CF92DF92EF92FF92F4
:100440006B017C010E94F3014B015C01C114D104DA
:10045000E104F104F1F00E94F301DC01CB01881901
:100460009909AA09BB09883E9340A105B10570F31B
:1004700021E0C21AD108E108F10888EE880E83E075
:10048000981EA11CB11CC114D104E104F10419F798
:10049000DDCFFF90EF90DF90CF90BF90AF909F9017
:1004A0008F900895009769F0FC0101900020E9F712
:1004B0003197AF01481B590BBC018EE391E00C94BE
:1004C000A70080E090E008958F929F92AF92BF9234
:1004D0000F931F93CF93DF93CDB7DEB7A1970FB6DE
:1004E000F894DEBF0FBECDBF19A2423008F44AE037
:1004F0008E010F5D1F4F842E912CA12CB12CA501D4
:1005000094010E94B107E62FB901CA0101501109F7
:10051000EA3014F4E05D01C0E95CD801EC93232BD0
:10052000242B252B61F7C8010E945202A1960FB619
:10053000F894DEBF0FBECDBFDF91CF911F910F9119
:10054000BF90AF909F908F900895CF92DF92EF92DF
:10055000FF92CF93DF936B017C01E0913E01F0911C
:100560003F010190F081E02D6DE28EE391E009956D
:10057000EC0166277727CB016C197D098E099F094D
:100580004AE00E9464028C0F9D1FDF91CF91FF9083
:10059000EF90DF90CF9008950E94780A0F931F93F9
:1005A000CF93DF93EC0188819981009729F02A810C
:1005B0003B812617370788F48B016F5F7F4F0E94BE
:1005C000AE09009761F0998388831B830A832C818D
:1005D0003D81232B11F4FC01108281E001C080E0F9
:1005E000DF91CF911F910F910895EF92FF920F939A
:1005F0001F93CF93DF93EC017B018A01BA010E9424
:10060000CE022881398181110DC02115310519F0E3
:10061000C9010E941609198218821D821C821B8240
:100620001A8206C01D830C83B701C9010E94860A85
:10063000CE01DF91CF911F910F91FF90EF90089520
:100640008F929F92BF92CF92DF92EF92FF920F9381
:100650001F93CF93DF9300D0CDB7DEB7BB24B39405
:100660008EE391E00E940701892B09F479C08EE3A3
:1006700091E00E94E500F82E89831A820091DF0143
:100680001091E0010F5F1F4FB8018BED91E00E94C8
:10069000CE02882399F02091DB013091DC0180911A
:1006A000DF019091E001BE016F5F7F4F820F931FCA
:1006B0000E94860A1093E0010093DF018AE0F8129D
:1006C000CFCFE090DB01F090DC01E114F10409F4FC
:1006D00044C00091DF011091E00101151105E9F11D
:1006E00047016401EFEF8E1A9E0AF6018081082E01
:1006F000000C990B0E947306892B99F70150110980
:100700000E0D1F1DF8018081082E000C990B0E9410
:100710007306892B89F4A8014F5F5F4F4C195D095F
:100720005093E0014093DF01EC14FD0458F4B6014E
:10073000C7010E947D0A06C00C151D0560F301501B
:100740001109E0CFE091DB01F091DC018091DF0144
:100750009091E001E80FF91F1082B0923D0180CF27
:100760000F900F90DF91CF911F910F91FF90EF901D
:10077000DF90CF90BF909F908F9008950E941301BB
:1007800081110C94200308951F920F920FB60F92BF
:1007900011242F933F934F935F936F937F938F9386
:1007A0009F93AF93BF93EF93FF938EE391E00E94EB
:1007B0001D01FF91EF91BF91AF919F918F917F911B
:1007C0006F915F914F913F912F910F900FBE0F90BE
:1007D0001F9018951F920F920FB60F9211242F930E
:1007E0008F939F93EF93FF93E0914E01F0914F0110
:1007F0008081E0915401F091550182FD12C09081F9
:10080000809157018F5F8F7320915801821751F0AB
:10081000E0915701F0E0E25CFE4F958F8093570125
:1008200001C08081FF91EF919F918F912F910F9047
:100830000FBE0F901F9018951F920F920FB60F9238
:1008400011242F933F938F939F93AF93BF938091E6
:10085000270190912801A0912901B0912A0130919E
:10086000260123E0230F2D3720F40196A11DB11D91
:1008700005C026E8230F0296A11DB11D2093260175
:100880008093270190932801A0932901B0932A0116
:1008900080912B0190912C01A0912D01B0912E01FE
:1008A0000196A11DB11D80932B0190932C01A09363
:1008B0002D01B0932E01BF91AF919F918F913F91E8
:1008C0002F910F900FBE0F901F901895EEE3F1E05F
:1008D0001382128288EE93E0A0E0B0E084839583D7
:1008E000A683B7838AE091E09183808385EC90E0D2
:1008F0009587848784EC90E09787868780EC90E0EA
:10090000918B808B81EC90E0938B828B82EC90E0DA
:10091000958B848B86EC90E0978B868B118E128E54
:10092000138E148EEBEDF1E011821082138212828D
:100930001582148240E050E065E271E0CF010C9432
:10094000F502CF93DF9300D000D000D0CDB7DEB753
:10095000789484B5826084BD84B5816084BD85B59A
:10096000826085BD85B5816085BD80916E008160A6
:1009700080936E001092810080918100826080934C
:10098000810080918100816080938100809180004E
:100990008160809380008091B10084608093B10079
:1009A0008091B00081608093B00080917A00846073
:1009B00080937A0080917A00826080937A0080919F
:1009C0007A00816080937A0080917A0080688093B9
:1009D0007A001092C10085E00E94880086E00E94A3
:1009E00088008AE00E9488008BE00E94880062E311
:1009F00070E08BED91E00E94CE02E0914E01F0910B
:100A00004F0182E08083E0914A01F0914B01108216
:100A1000E0914C01F0914D018FEC808310925601D2
:100A2000E0915201F091530186E08083E091500102
:100A3000F0915101808180618083E0915001F091BB
:100A40005101808188608083E0915001F0915101D3
:100A5000808180688083E0915001F0915101808114
:100A60008F7D808388E191E00E94520283E291E0D1
:100A70000E94520261E085E00E94A70161E070E0FF
:100A800080E090E00E94180260E085E00E94A701EB
:100A900060912F017091300180913101909132016C
:100AA0000E94180280913D01882309F464C0E090FF
:100AB000DF01F090E001E114F10409F45CC01A8256
:100AC00019821C821B821E821D8240E050E065E27A
:100AD00071E0CE0101960E94F5020091DF011091B4
:100AE000E0010230110538F1E016F10608F4870143
:100AF000E091DB01F091DC01E00FF11FF08010824A
:100B00006091DB017091DC016F5F7F4FB9F1FB01F8
:100B100001900020E9F73197AF01461B570BCE013A
:100B200001960E94F5028091DB019091DC01FC01AD
:100B3000E00FF11FF08209811A810115110559F1A9
:100B4000C8010E9437066B0170933C0160933B0122
:100B5000C8010E9416098091DF019091E001892B64
:100B6000F1F440E050E065E271E08BED91E00E942D
:100B7000F50210923D010E94BE037CCF89819A81CB
:100B8000009711F00E9416091A8219821E821D8296
:100B90001C821B82C8CF60E070E0CB01D4CFE09113
:100BA000DB01F091DC013097E1F280818335C9F6F9
:100BB0000D2C000CEE08FF08C701B6010E947E064E
:100BC0009B01AC0160933701709338018093390128
:100BD00090933A0160E070E080E89FE30E94D307C1
:100BE00020E030E04AE754E40E94B9066093330104
:100BF0007093340180933501909336010E9445082B
:100C000060932F01709330018093310190933201F2
:100C1000F7FE05C0C701B6010E94A50205C04AE063
:100C2000C701B6010E94640283E291E00E94520271
:100C300060912F01709130018091310190913201CA
:100C400097FF03C00E94A50203C04AE00E9464020D
:100C500083E291E00E94520283E291E00E945202FC
:100C600080CF8091DB019091DC010C9416091F93D9
:100C7000FC0199278827BC01E89411911032E9F30F
:100C8000193010F01E30C8F31B3251F01D3249F4F8
:100C9000689406C00E945E06610F711D811D911D42
:100CA000119110531A30B0F33EF4909580957095E1
:100CB00061957F4F8F4F9F4F1F910895592F482F58
:100CC000372F262F660F771F881F991F660F771FF4
:100CD000881F991F620F731F841F951F660F771F50
:100CE000881F991F089591110C942607803219F0DE
:100CF00089508550C8F70895E89409C097FB3EF4E1
:100D000090958095709561957F4F8F4F9F4F992358
:100D1000A9F0F92F96E9BB279395F69587957795D6
:100D20006795B795F111F8CFFAF4BB0F11F460FF96
:100D30001BC06F5F7F4F8F4F9F4F16C0882311F0EE
:100D400096E911C0772321F09EE8872F762F05C002
:100D5000662371F096E8862F70E060E02AF09A959D
:100D6000660F771F881FDAF7880F9695879597F992
:100D700008950E94CC060C9440070E94320738F078
:100D80000E94390720F0952311F00C9429070C9448
:100D90002F0711240C9474070E94510770F3959F3C
:100DA000C1F3950F50E0551F629FF001729FBB2762
:100DB000F00DB11D639FAA27F00DB11DAA1F649FFE
:100DC0006627B00DA11D661F829F2227B00DA11DB1
:100DD000621F739FB00DA11D621F839FA00D611D37
:100DE000221F749F3327A00D611D231F849F600D58
:100DF000211D822F762F6A2F11249F5750409AF081
:100E0000F1F088234AF0EE0FFF1FBB1F661F771F0C
:100E1000881F91505040A9F79E3F510580F00C94D7
:100E200029070C9474075F3FE4F3983ED4F386954A
:100E300077956795B795F795E7959F5FC1F7FE2B77
:100E4000880F911D9695879597F90895992788277A
:100E5000089597F99F6780E870E060E008959FEF3C
:100E600080EC089500240A94161617061806090641
:100E7000089500240A941216130614060506089510
:100E8000092E0394000C11F4882352F0BB0F40F498
:100E9000BF2B11F460FF04C06F5F7F4F8F4F9F4FD8
:100EA000089557FD9058440F551F59F05F3F71F05A
:100EB0004795880F97FB991F61F09F3F79F08795C1
:100EC0000895121613061406551FF2CF4695F1DF4A
:100ED00008C0161617061806991FF1CF86957105DA
:100EE000610508940895E894BB2766277727CB010E
:100EF00097F908952F923F924F925F926F927F924F
:100F00008F929F92AF92BF92CF92DF92EF92FF9219
:100F10000F931F93CF93DF93CDB7DEB7CA1BDB0BC5
:100F20000FB6F894DEBF0FBECDBF09942A8839886A
:100F300048885F846E847D848C849B84AA84B98471
:100F4000C884DF80EE80FD800C811B81AA81B9817D
:100F5000CE0FD11D0FB6F894DEBF0FBECDBFED0191
:100F60000895A1E21A2EAA1BBB1BFD010DC0AA1FEA
:100F7000BB1FEE1FFF1FA217B307E407F50720F002
:100F8000A21BB30BE40BF50B661F771F881F991F7D
:100F90001A9469F760957095809590959B01AC01C6
:100FA000BD01CF0108950E94E7070C9440070E94FD
:100FB000390758F00E94320740F029F45F3F29F0CA
:100FC0000C94290751110C9474070C942F070E945C
:100FD000510768F39923B1F3552391F3951B550BF2
:100FE000BB27AA2762177307840738F09F5F5F4FFC
:100FF000220F331F441FAA1FA9F335D00E2E3AF03B
:10100000E0E832D091505040E695001CCAF72BD052
:10101000FE2F29D0660F771F881FBB1F26173707A3
:101020004807AB07B0E809F0BB0B802DBF01FF27D5
:1010300093585F4F3AF09E3F510578F00C94290782
:101040000C9474075F3FE4F3983ED4F3869577954C
:101050006795B795F7959F5FC9F7880F911D96958E
:10106000879597F90895E1E0660F771F881FBB1FEA
:10107000621773078407BA0720F0621B730B840B97
:10108000BA0BEE1F88F7E09508950E944C0868940B
:10109000B1110C94740708950E94590788F09F5766
:1010A00098F0B92F9927B751B0F0E1F0660F771F8C
:1010B000881F991F1AF0BA95C9F714C0B13091F082
:1010C0000E947307B1E008950C947307672F782F7F
:1010D0008827B85F39F0B93FCCF386957795679547
:1010E000B395D9F73EF490958095709561957F4FB3
:1010F0008F4F9F4F0895EE0FFF1F0590F491E02D45
:101100000994CF93DF938230910510F482E090E050
:10111000E091E301F091E40120E030E0C0E0D0E0B4
:10112000309711F14081518148175907C0F0481795
:10113000590761F482819381209719F09B838A83F8
:101140002BC09093E4018093E30126C02115310563
:1011500019F04217530718F49A01BE01DF01EF019D
:101160000280F381E02DDCCF2115310509F1281B28
:10117000390B2430310590F412968D919C91139780
:101180006115710521F0FB019383828304C0909364
:10119000E4018093E301FD01329644C0FD01E20FBA
:1011A000F31F81939193225031092D933C933AC0C0
:1011B0002091E1013091E201232B41F420910201C1
:1011C000309103013093E2012093E101209100016D
:1011D000309101012115310541F42DB73EB7409101
:1011E000040150910501241B350BE091E101F091C0
:1011F000E201E217F307A0F42E1B3F0B2817390773
:1012000078F0AC014E5F5F4F2417350748F04E0F62
:101210005F1F5093E2014093E1018193919302C0DB
:10122000E0E0F0E0CF01DF91CF9108950F931F939D
:10123000CF93DF93009709F48CC0FC01329713829F
:1012400012820091E3011091E4010115110581F46E
:1012500020813181820F931F2091E1013091E201C1
:101260002817390779F5F093E201E093E10171C0A5
:10127000D80140E050E0AE17BF0750F412962D9110
:101280003C911397AD012115310509F1D901F3CF37
:101290009D01DA013383228360817181860F971F5C
:1012A0008217930769F4EC0128813981260F371FD3
:1012B0002E5F3F4F318320838A819B81938382837A
:1012C000452B29F4F093E401E093E30142C0139627
:1012D000FC93EE931297ED01499159919E01240FD1
:1012E000351FE217F30771F480819181840F951FF8
:1012F000029611969C938E938281938113969C9370
:101300008E931297E0E0F0E0D80112968D919C91B7
:101310001397009719F0F8018C01F6CF8D919C91ED
:1013200098012E5F3F4F820F931F2091E101309172
:10133000E2012817390769F4309729F41092E40183
:101340001092E30102C0138212821093E201009313
:10135000E101DF91CF911F910F910895A0E0B0E0DE
:10136000E4EBF9E00C947E07EC01009721F4CB014B
:101370000E948108B8C0FC01E60FF71F9C012250B3
:101380003109E217F30708F4ACC0D9010D911C91A3
:10139000119706171707B0F00530110508F49FC024
:1013A000C80104978617970708F499C002501109DD
:1013B000061B170B019311936D937C93CF010E9431
:1013C00016098DC05B01A01AB10A4C01800E911E56
:1013D000A091E301B091E40140E050E0E12CF12C58
:1013E000109709F44AC0A815B905D1F56D907C9005
:1013F0001197630182E0C80ED11CCA14DB0480F18E
:10140000A3014A195B096A0182E0C80ED11C129639
:10141000BC9012971396AC91B5E0CB16D10440F076
:10142000B282A38351834083D9016D937C930AC018
:101430000E5F1F4FC301800F911FF90191838083BD
:10144000EB2DFA2FE114F10431F0D7011396FC9340
:10145000EE93129744C0F093E401E093E3013FC0A0
:101460008D919C9111974817590708F4AC017D01A3
:1014700012960D90BC91A02DB3CF8091E101909177
:10148000E20188159905E1F446175707C8F48091E1
:10149000000190910101009741F48DB79EB74091F2
:1014A000040150910501841B950BE817F907C8F456
:1014B000F093E201E093E101F901718360830FC0D1
:1014C000CB010E9481087C01009759F0A801BE0160
:1014D0000E947D0ACE010E941609C70104C0CE01F8
:1014E00002C080E090E0CDB7DEB7EEE00C949A0742
:1014F00081E090E0F8940C948D0AFB01DC0102C0BD
:1015000001900D9241505040D8F70895FB01DC0145
:1015100001900D920020E1F7089510E0CDE5D0E0B4
:1015200004C0FE010E947B082196CE35D107C9F781
:04153000F894FFCF5D
:101534000000E5018000000000003E01A700D60085
:1015440085010701E500F900436F6E6E65637465FC
:061554006421000D0A00F5
:107E0000112484B714BE81FFF0D085E080938100F7
:107E100082E08093C00088E18093C10086E0809377
:107E2000C20080E18093C4008EE0C9D0259A86E02C
:107E300020E33CEF91E0309385002093840096BBD3
:107E4000B09BFECF1D9AA8958150A9F7CC24DD24C4
:107E500088248394B5E0AB2EA1E19A2EF3E0BF2EE7
:107E6000A2D0813461F49FD0082FAFD0023811F036
:107E7000013811F484E001C083E08DD089C08234E0
:107E800011F484E103C0853419F485E0A6D080C0E4
:107E9000853579F488D0E82EFF2485D0082F10E0AE
:107EA000102F00270E291F29000F111F8ED06801E7
:107EB0006FC0863521F484E090D080E0DECF843638
:107EC00009F040C070D06FD0082F6DD080E0C81688
:107ED00080E7D80618F4F601B7BEE895C0E0D1E017
:107EE00062D089930C17E1F7F0E0CF16F0E7DF06D8
:107EF00018F0F601B7BEE89568D007B600FCFDCFD4
:107F0000A601A0E0B1E02C9130E011968C91119780
:107F100090E0982F8827822B932B1296FA010C0160
:107F200087BEE89511244E5F5F4FF1E0A038BF0790
:107F300051F7F601A7BEE89507B600FCFDCF97BE46
:107F4000E89526C08437B1F42ED02DD0F82E2BD052
:107F50003CD0F601EF2C8F010F5F1F4F84911BD097
:107F6000EA94F801C1F70894C11CD11CFA94CF0C13
:107F7000D11C0EC0853739F428D08EE10CD085E9AC
:107F80000AD08FE07ACF813511F488E018D01DD067
:107F900080E101D065CF982F8091C00085FFFCCF94
:107FA0009093C60008958091C00087FFFCCF809118
:107FB000C00084FD01C0A8958091C6000895E0E648
:107FC000F0E098E1908380830895EDDF803219F02E
:107FD00088E0F5DFFFCF84E1DECF1F93182FE3DFCA
:107FE0001150E9F7F2DF1F91089580E0E8DFEE27F6
:047FF000FF270994CA
:027FFE00040479
:0400000300007E007B
:00000001FF