:100000000C945E000C9486000C9486000C94860080
:100010000C9486000C9486000C9486000C94860048
:100020000C9486000C9486000C9486000C94860038
:100030000C9486000C9486000C9486000C94860028
:100040000C94E8030C9486000C9458040C9432042D
:100050000C9486000C9486000C9486000C94860008
:100060000C9486000C9486000000000024002700F9
:100070002A0000000000250028002B0004040404CE
:100080000404040402020202020203030303030342
:10009000010204081020408001020408102001021F
:1000A00004081020000000080002010000030407FB
:1000B00000000000000000008A04E70511241FBEB4
:1000C000CFEFD8E0DEBFCDBF11E0A0E0B1E0E4ECBF
:1000D000F1E102C005900D92A632B107D9F721E0F7
:1000E000A6E2B1E001C01D92AB3DB207E1F710E01E
:1000F000CDE5D0E004C02197FE010E94C306CC35B7
:10010000D107C9F70E94C5040C94D5080C940000CF
:100110008091D5019091D601892B41F0E091D101D8
:10012000F091D201309711F08081089580E0089518
:10013000CF92DF92EF92FF920F931F93CF93DF93B3
:100140006C017A018B01C0E0D0E0CE15DF0589F0AB
:10015000D8016D918D01D601ED91FC910190F08156
:10016000E02DC6010995892B11F47E0102C021966C
:10017000ECCFC701DF91CF911F910F91FF90EF90CE
:10018000DF90CF900895089580E090E00895FC01FD
:10019000538D448D252F30E0842F90E0821B930BEC
:1001A000541710F0CF96089501970895FC01918D92
:1001B000828D981761F0828DDF01A80FB11D5D96C9
:1001C0008C91928D9F5F9F73928F90E008958FEF37
:1001D0009FEF0895FC01918D828D981731F0828DEB
:1001E000E80FF11D858D90E008958FEF9FEF089542
:1001F000FC01918D228D892F90E0805C9F4F821BA6
:1002000091098F739927089584E391E00E94F80083
:1002100021E0892B09F420E0822F0895FC01848DD0
:10022000DF01A80FB11DA35ABF4F2C91848D90E020
:1002300001968F739927848FA689B7892C93A089FB
:10024000B1898C9180648C93938D848D981306C0B2
:100250000288F389E02D80818F7D80830895EF925D
:10026000FF920F931F93CF93DF93EC0181E0888F70
:100270009B8D8C8D981305C0E889F989808185FD57
:1002800024C0F62E0B8D10E00F5F1F4F0F73112748
:10029000E02E8C8DE8120CC00FB607FCFACFE8896F
:1002A000F989808185FFF5CFCE010E940E01F1CF43
:1002B0008B8DFE01E80FF11DE35AFF4FF0820B8F8B
:1002C000EA89FB898081806207C0EE89FF896083AB
:1002D000E889F98980818064808381E090E0DF9102
:1002E000CF911F910F91FF90EF900895CF93DF93DF
:1002F000EC01888D8823C9F0EA89FB89808185FD1E
:1003000005C0A889B9898C9186FD0FC00FB607FC7E
:10031000F5CF808185FFF2CFA889B9898C9185FFBF
:10032000EDCFCE010E940E01E7CFDF91CF9108956E
:1003300090E0FC01EC55FF4F3491FC01E057FF4F7A
:100340002491FC01E458FF4FE491EE2309F43BC0F3
:10035000332339F1333091F038F43130A9F03230B1
:1003600001F584B58F7D12C0373091F03830A1F09F
:100370003430B9F4809180008F7D03C0809180007B
:100380008F77809380000DC084B58F7784BD09C0BE
:100390008091B0008F7703C08091B0008F7D8093F3
:1003A000B000F0E0EE0FFF1FEE58FF4FA591B491A3
:1003B0008FB7F894EC91611103C020952E2301C0F2
:1003C0002E2B2C938FBF0895009769F0FC010190AC
:1003D0000020E9F73197AF01481B590BBC0184E3BA
:1003E00091E00C94980080E090E00895CF92DF9225
:1003F000EF92FF920F931F93CF93DF93CDB7DEB7AA
:10040000A1970FB6F894DEBF0FBECDBF8C01AB0134
:10041000A0912801B09129012FEF30E00E94BC0685
:100420009A01550F440B550B0E943506B9013093C4
:10043000270120932601C8019927FC01E057FF4FAF
:10044000A491FC01E458FF4F44914423A1F050E0F3
:10045000440F551FFA01E859FF4FE590F490FA0157
:10046000EE58FF4F459154914FB7F894F7015081E2
:10047000A52BA0834FBF6115710509F446C06F3FDE
:10048000710509F444C0FC01EC55FF4FE491E330E1
:10049000F9F048F4E130B9F0E230A1F584B58062BA
:1004A00084BD28BD38C0E730E9F0E83019F1E43008
:1004B00049F58091800080628093800030938B00AA
:1004C00020938A0028C084B5806884BD27BD23C0DE
:1004D0008091800080688093800030938900209311
:1004E000880019C08091B00080688093B00020938C
:1004F000B30011C08091B00080628093B00020935F
:10050000B40009C06038710514F460E001C061E016
:10051000802F0E949801C0902601D09027010D2CB9
:10052000000CEE08FF08F7FE2BC0E0913401F091BB
:1005300035010190F081E02D6DE284E391E00995B1
:1005400022273327A9012C193D094E095F0919A259
:100550008E010F5D1F4F9AE0C92ED12CE12CF12C9A
:10056000CA01B901A70196010E948B06605DF801DE
:1005700062938F01211531054105510589F71AC094
:10058000A701960119A28E010F5D1F4F8AE0C82EA8
:10059000D12CE12CF12CCA01B901A70196010E94CE
:1005A0008B06605DF80162938F01211531054105CD
:1005B000510589F7C8010E94E40188E191E00E9499
:1005C000E401A1960FB6F894DEBF0FBECDBFDF9158
:1005D000CF911F910F91FF90EF90DF90CF900895F2
:1005E0000E94C0080F931F93CF93DF93EC01888183
:1005F0009981009729F02A813B812617370788F4D3
:100600008B016F5F7F4F0E94F607009761F099831F
:1006100088831B830A832C813D81232B11F4FC01E9
:10062000108281E001C080E0DF91CF911F910F9196
:100630000895EF92FF920F931F93CF93DF93EC01F6
:100640007B018A01BA010E94F2022881398181115D
:100650000DC02115310519F0C9010E945E071982EC
:1006600018821D821C821B821A8206C01D830C8385
:10067000B701C9010E94CE08CE01DF91CF911F9131
:100680000F91FF90EF9008958F929F92BF92CF921B
:10069000DF92EF92FF920F931F93CF93DF9300D0DF
:1006A000CDB7DEB7BB24B39484E391E00E94F80099
:1006B000892B09F479C084E391E00E94D600F82EDA
:1006C00089831A820091D5011091D6010F5F1F4FC7
:1006D000B80181ED91E00E94F202882399F0209107
:1006E000D1013091D2018091D5019091D601BE0106
:1006F0006F5F7F4F820F931F0E94CE081093D60129
:100700000093D5018AE0F812CFCFE090D101F090AC
:10071000D201E114F10409F444C00091D501109113
:10072000D60101151105E9F147016401EFEF8E1AB9
:100730009E0AF6018081082E000C990B0E94290662
:10074000892B99F7015011090E0D1F1DF8018081A9
:10075000082E000C990B0E942906892B89F4A80108
:100760004F5F5F4F4C195D095093D6014093D501FF
:10077000EC14FD0458F4B601C7010E94C50806C078
:100780000C151D0560F301501109E0CFE091D10176
:10079000F091D2018091D5019091D601E80FF91F17
:1007A0001082B0922A0180CF0F900F90DF91CF91ED
:1007B0001F910F91FF90EF90DF90CF90BF909F908F
:1007C0008F9008950E94040181110C9444030895B0
:1007D0001F920F920FB60F9211242F933F938F9376
:1007E0009F93AF93BF938091300190913101A0917D
:1007F0003201B091330130912F0123E0230F2D37C7
:1008000020F40196A11DB11D05C026E8230F029614
:10081000A11DB11D20932F018093300190933101D0
:10082000A0933201B093330180912B0190912C0160
:10083000A0912D01B0912E010196A11DB11D8093B3
:100840002B0190932C01A0932D01B0932E01BF9109
:10085000AF919F918F913F912F910F900FBE0F906D
:100860001F9018951F920F920FB60F9211242F937D
:100870003F934F935F936F937F938F939F93AF9328
:10088000BF93EF93FF9384E391E00E940E01FF91E9
:10089000EF91BF91AF919F918F917F916F915F91F8
:1008A0004F913F912F910F900FBE0F901F90189571
:1008B0001F920F920FB60F9211242F938F939F9335
:1008C000EF93FF93E0914401F09145018081E09125
:1008D0004A01F0914B0182FD12C0908180914D013F
:1008E0008F5F8F7320914E01821751F0E0914D017F
:1008F000F0E0EC5CFE4F958F80934D0101C080814C
:10090000FF91EF919F918F912F910F900FBE0F90BC
:100910001F901895E4E3F1E01382128288EE93E0D1
:10092000A0E0B0E084839583A683B7838AE091E05A
:100930009183808385EC90E09587848784EC90E0B8
:100940009787868780EC90E0918B808B81EC90E09C
:10095000938B828B82EC90E0958B848B86EC90E07D
:10096000978B868B118E128E138E148EE1EDF1E033
:1009700011821082138212821582148240E050E0AC
:100980006AE171E0CF010C941903CF93DF9300D09B
:1009900000D000D0CDB7DEB7789484B5826084BD36
:1009A00084B5816084BD85B5826085BD85B5816073
:1009B00085BD80916E00816080936E0010928100F1
:1009C00080918100826080938100809181008160AC
:1009D000809381008091800081608093800080916D
:1009E000B10084608093B1008091B00081608093F9
:1009F000B00080917A00846080937A0080917A00C0
:100A0000826080937A0080917A00816080937A007E
:100A100080917A00806880937A001092C10062E32E
:100A200070E081ED91E00E94F202E0914401F091CA
:100A3000450182E08083E0914001F0914101108204
:100A4000E0914201F09143018FEC808310924C01C0
:100A5000E0914801F091490186E08083E0914601F0
:100A6000F0914701808180618083E0914601F0919F
:100A70004701808188608083E0914601F0914701C1
:100A8000808180688083E0914601F09147018081F8
:100A90008F7D80838BE191E00E94E40188E191E009
:100AA0000E94E40180912A01882309F467C0E09044
:100AB000D501F090D601E114F10409F45FC01A8267
:100AC00019821C821B821E821D8240E050E06AE176
:100AD00071E0CE0101960E9419030091D501109199
:100AE000D6010230110538F1E016F10608F487014D
:100AF000E091D101F091D201E00FF11FF08010825E
:100B00006091D1017091D2016F5F7F4FD1F1FB01F4
:100B100001900020E9F73197AF01461B570BCE013A
:100B200001960E9419038091D1019091D201FC019C
:100B3000E00FF11FF08209811A810115110571F191
:100B4000C8010E94ED057093290160932801C80136
:100B50000E945E070E948800833521F560EF70E0F7
:100B600085E090E00E94F60140E050E06AE171E02B
:100B700081ED91E00E94190310922A010E94E20384
:100B800091CF89819A81009711F00E945E071A82A5
:100B900019821E821D821C821B82C5CF60E070E01C
:100BA000CB01D1CF823529F468E57BE186E090E086
:100BB000D9CF863429F464E670E08AE090E0D2CFA1
:100BC000843591F664E670E08BE090E0CBCF8091C5
:100BD000D1019091D2010C945E071F93FC019927DB
:100BE0008827BC01E89411911032E9F3193010F014
:100BF0001E30C8F31B3251F01D3249F4689406C010
:100C00000E941406610F711D811D911D11911053D9
:100C10001A30B0F33EF490958095709561957F4FB2
:100C20008F4F9F4F1F910895592F482F372F262FF1
:100C3000660F771F881F991F660F771F881F991FE0
:100C4000620F731F841F951F660F771F881F991FE0
:100C5000089591110C943206803219F08950855014
:100C6000C8F70895992788270895052E97FB1EF445
:100C700000940E944C0657FD07D00E948B0607FC8B
:100C800003D04EF40C944C06509540953095219528
:100C90003F4F4F4F5F4F08959095809570956195A8
:100CA0007F4F8F4F9F4F08952F923F924F925F92A9
:100CB0006F927F928F929F92AF92BF92CF92DF926C
:100CC000EF92FF920F931F93CF93DF93CDB7DEB7D1
:100CD000CA1BDB0B0FB6F894DEBF0FBECDBF099465
:100CE0002A88398848885F846E847D848C849B84BC
:100CF000AA84B984C884DF80EE80FD800C811B81CA
:100D0000AA81B981CE0FD11D0FB6F894DEBF0FBEF8
:100D1000CDBFED010895A1E21A2EAA1BBB1BFD0158
:100D20000DC0AA1FBB1FEE1FFF1FA217B307E407CA
:100D3000F50720F0A21BB30BE40BF50B661F771F22
:100D4000881F991F1A9469F7609570958095909502
:100D50009B01AC01BD01CF010895A29FB001B39FDB
:100D6000C001A39F700D811D1124911DB29F700DB4
:100D7000811D1124911D08950E94AD06B7FF0895AD
:100D8000821B930B0895EE0FFF1F0590F491E02D49
:100D90000994CF93DF938230910510F482E090E0C4
:100DA000E091D901F091DA0120E030E0C0E0D0E03C
:100DB000309711F14081518148175907C0F0481709
:100DC000590761F482819381209719F09B838A836C
:100DD0002BC09093DA018093D90126C021153105EB
:100DE00019F04217530718F49A01BE01DF01EF0111
:100DF0000280F381E02DDCCF2115310509F1281B9C
:100E0000390B2430310590F412968D919C911397F3
:100E10006115710521F0FB019383828304C09093D7
:100E2000DA018093D901FD01329644C0FD01E20F41
:100E3000F31F81939193225031092D933C933AC033
:100E40002091D7013091D801232B41F42091020148
:100E5000309103013093D8012093D70120910001F4
:100E6000309101012115310541F42DB73EB7409174
:100E7000040150910501241B350BE091D701F0913D
:100E8000D801E217F307A0F42E1B3F0B28173907F0
:100E900078F0AC014E5F5F4F2417350748F04E0FD6
:100EA0005F1F5093D8014093D7018193919302C063
:100EB000E0E0F0E0CF01DF91CF9108950F931F9311
:100EC000CF93DF93009709F48CC0FC013297138213
:100ED00012820091D9011091DA010115110581F4F6
:100EE00020813181820F931F2091D7013091D80149
:100EF0002817390779F5F093D801E093D70171C02D
:100F0000D80140E050E0AE17BF0750F412962D9183
:100F10003C911397AD012115310509F1D901F3CFAA
:100F20009D01DA013383228360817181860F971FCF
:100F30008217930769F4EC0128813981260F371F46
:100F40002E5F3F4F318320838A819B8193838283ED
:100F5000452B29F4F093DA01E093D90142C01396AE
:100F6000FC93EE931297ED01499159919E01240F44
:100F7000351FE217F30771F480819181840F951F6B
:100F8000029611969C938E938281938113969C93E3
:100F90008E931297E0E0F0E0D80112968D919C912B
:100FA0001397009719F0F8018C01F6CF8D919C9161
:100FB00098012E5F3F4F820F931F2091D7013091F0
:100FC000D8012817390769F4309729F41092DA010B
:100FD0001092D90102C0138212821093D80100939B
:100FE000D701DF91CF911F910F910895A0E0B0E05C
:100FF000ECEFF7E00C945806EC01009721F4CB01DC
:101000000E94C906B8C0FC01E60FF71F9C012250E0
:101010003109E217F30708F4ACC0D9010D911C9116
:10102000119706171707B0F00530110508F49FC097
:10103000C80104978617970708F499C00250110950
:10104000061B170B019311936D937C93CF010E94A4
:101050005E078DC05B01A01AB10A4C01800E911E83
:10106000A091D901B091DA0140E050E0E12CF12CDF
:10107000109709F44AC0A815B905D1F56D907C9078
:101080001197630182E0C80ED11CCA14DB0480F101
:10109000A3014A195B096A0182E0C80ED11C1296AD
:1010A000BC9012971396AC91B5E0CB16D10440F0EA
:1010B000B282A38351834083D9016D937C930AC08C
:1010C0000E5F1F4FC301800F911FF9019183808331
:1010D000EB2DFA2FE114F10431F0D7011396FC93B4
:1010E000EE93129744C0F093DA01E093D9013FC028
:1010F0008D919C9111974817590708F4AC017D0117
:1011000012960D90BC91A02DB3CF8091D7019091F4
:10111000D80188159905E1F446175707C8F480915E
:10112000000190910101009741F48DB79EB7409165
:10113000040150910501841B950BE817F907C8F4C9
:10114000F093D801E093D701F901718360830FC058
:10115000CB010E94C9067C01009759F0A801BE018D
:101160000E94C508CE010E945E07C70104C0CE01DF
:1011700002C080E090E0CDB7DEB7EEE00C947406DC
:1011800081E090E0F8940C94D508FB01DC0102C0EA
:1011900001900D9241505040D8F70895FB01DC01B9
:1011A00001900D920020E1F7089510E0CDE5D0E028
:1011B00004C0FE010E94C3062196CE35D107C9F7AF
:0411C000F894FFCFD1
:1011C4000000DB018000000000002F019800C70030
:1011D4007601F800D600EA000D0A00436F6E6E65D2
:0611E40063746564210044
:00000001FF
