:100000000C945E000C9486000C9486000C94860080
:100010000C9486000C9486000C9486000C94860048
:100020000C9486000C9486000C9486000C94860038
:100030000C9486000C9486000C9486000C94860028
:100040000C94A2030C9486000C9470030C944A0345
:100050000C9486000C9486000C9486000C94860008
:100060000C9486000C948600000000080002010039
:100070000003040700000000000000000000000072
:10008000250028002B0000000000240027002A0083
:10009000040404040404040402020202020203032E
:1000A0000303030301020408102040800102040836
:1000B0001020010204081020EC03790511241FBE52
:1000C000CFEFD8E0DEBFCDBF21E0AAE1B1E001C0B3
:1000D0001D92A33DB207E1F711E0A0E0B1E0EAE82C
:1000E000F0E102C005900D92AA31B107D9F710E0F6
:1000F000CDE5D0E004C02197FE010E942606CC3554
:10010000D107C9F70E9427040C9438080C9400000A
:1001100090E0FC01EC55FF4F2491FC01E057FF4FAC
:100120008491882399F090E0880F991FFC01EA5789
:10013000FF4FA591B491FC01E458FF4F8591949134
:100140008FB7F894EC91E22BEC938FBF0895CF9288
:10015000DF92EF92FF920F931F93CF93DF936C0187
:100160007A018B01C0E0D0E0CE15DF0589F0D8011F
:100170006D918D01D601ED91FC910190F081E02D02
:10018000C6010995892B11F47E0102C02196ECCF9E
:10019000C701DF91CF911F910F91FF90EF90DF90FA
:1001A000CF900895089580E090E00895FC01538D6C
:1001B000448D252F30E0842F90E0821B930B541741
:1001C00010F0CF96089501970895FC01918D828DCE
:1001D000981761F0828DDF01A80FB11D5D968C919B
:1001E000928D9F5F9F73928F90E008958FEF9FEFA6
:1001F0000895FC01918D828D981731F0828DE80F62
:10020000F11D858D90E008958FEF9FEF0895FC011B
:10021000918D228D892F90E0805C9F4F821B9109E8
:100220008F73992708958CE291E00E94070121E0E5
:10023000892B09F420E0822F0895FC01848DDF01D1
:10024000A80FB11DA35ABF4F2C91848D90E0019649
:100250008F739927848FA689B7892C93A089B18938
:100260008C9180648C93938D848D981306C0028842
:10027000F389E02D80818F7D80830895EF92FF9236
:100280000F931F93CF93DF93EC0181E0888F9B8DB9
:100290008C8D981305C0E889F989808185FD24C07B
:1002A000F62E0B8D10E00F5F1F4F0F731127E02EFE
:1002B0008C8DE8120CC00FB607FCFACFE889F989DB
:1002C000808185FFF5CFCE010E941D01F1CF8B8D7E
:1002D000FE01E80FF11DE35AFF4FF0820B8FEA8910
:1002E000FB898081806207C0EE89FF896083E8898D
:1002F000F98980818064808381E090E0DF91CF91F3
:100300001F910F91FF90EF900895CF93DF93EC0131
:10031000888D8823C9F0EA89FB89808185FD05C025
:10032000A889B9898C9186FD0FC00FB607FCF5CF5F
:10033000808185FFF2CFA889B9898C9185FFEDCFA7
:10034000CE010E941D01E7CFDF91CF91089590E08B
:10035000FC01E859FF4F3491FC01EC55FF4F24910B
:10036000FC01E057FF4FE491EE2309F43BC0332337
:1003700039F1333091F038F43130A9F0323001F5F1
:1003800084B58F7D12C0373091F03830A1F0343011
:10039000B9F4809180008F7D03C0809180008F77B9
:1003A000809380000DC084B58F7784BD09C0809193
:1003B000B0008F7703C08091B0008F7D8093B00034
:1003C000F0E0EE0FFF1FE458FF4FA591B4918FB7F7
:1003D000F894EC91611103C020952E2301C02E2BBF
:1003E0002C938FBF08953FB7F89480911F0190918F
:1003F0002001A0912101B091220126B5A89B05C042
:100400002F3F19F00196A11DB11D3FBFBA2FA92F93
:10041000982F8827820F911DA11DB11DBC01CD0110
:1004200042E0660F771F881F991F4A95D1F70895FC
:100430008F929F92AF92BF92CF92DF92EF92FF92F4
:100440006B017C010E94F3014B015C01C114D104DA
:10045000E104F104F1F00E94F301DC01CB01881901
:100460009909AA09BB09883E9340A105B10570F31B
:1004700021E0C21AD108E108F10888EE880E83E075
:10048000981EA11CB11CC114D104E104F10419F798
:10049000DDCFFF90EF90DF90CF90BF90AF909F9017
:1004A0008F9008950E9423080F931F93CF93DF939B
:1004B000EC0188819981009729F02A813B812617D8
:1004C000370788F48B016F5F7F4F0E9459070097B1
:1004D00061F0998388831B830A832C813D81232BC0
:1004E00011F4FC01108281E001C080E0DF91CF9126
:1004F0001F910F910895EF92FF920F931F93CF9347
:10050000DF93EC017B018A01BA010E945402288129
:10051000398181110DC02115310519F0C9010E94E1
:10052000C106198218821D821C821B821A8206C093
:100530001D830C83B701C9010E943108CE01DF91F0
:10054000CF911F910F91FF90EF9008958F929F92FE
:10055000BF92CF92DF92EF92FF920F931F93CF93B0
:10056000DF9300D0CDB7DEB7BB24B3948CE291E02B
:100570000E940701892B09F479C08CE291E00E9466
:10058000E500F82E89831A820091CD011091CE01E9
:100590000F5F1F4FB80189EC91E00E94540288233D
:1005A00099F02091C9013091CA018091CD019091BB
:1005B000CE01BE016F5F7F4F820F931F0E943108F3
:1005C0001093CE010093CD018AE0F812CFCFE090D6
:1005D000C901F090CA01E114F10409F444C000918A
:1005E000CD011091CE0101151105E9F1470164011A
:1005F000EFEF8E1A9E0AF6018081082E000C990BEF
:100600000E94BB05892B99F7015011090E0D1F1D82
:10061000F8018081082E000C990B0E94BB05892BE4
:1006200089F4A8014F5F5F4F4C195D095093CE01CB
:100630004093CD01EC14FD0458F4B601C7010E94AB
:10064000280806C00C151D0560F301501109E0CF04
:10065000E091C901F091CA018091CD019091CE0144
:10066000E80FF91F1082B092290180CF0F900F90F0
:10067000DF91CF911F910F91FF90EF90DF90CF907E
:10068000BF909F908F9008950E94130181110C9448
:10069000A60208951F920F920FB60F9211242F9366
:1006A0003F934F935F936F937F938F939F93AF93FA
:1006B000BF93EF93FF938CE291E00E941D01FF91A5
:1006C000EF91BF91AF919F918F917F916F915F91CA
:1006D0004F913F912F910F900FBE0F901F90189543
:1006E0001F920F920FB60F9211242F938F939F9307
:1006F000EF93FF93E0913C01F0913D018081E09107
:100700004201F091430182FD12C090818091450128
:100710008F5F8F7320914601821751F0E091450160
:10072000F0E0E45DFE4F958F8093450101C080812C
:10073000FF91EF919F918F912F910F900FBE0F908E
:100740001F9018951F920F920FB60F9211242F939E
:100750003F938F939F93AF93BF9380911B01909191
:100760001C01A0911D01B0911E0130911A0123E0DE
:10077000230F2D3720F40196A11DB11D05C026E8D9
:10078000230F0296A11DB11D20931A0180931B0116
:1007900090931C01A0931D01B0931E0180911F0135
:1007A00090912001A0912101B09122010196A11DFB
:1007B000B11D80931F0190932001A0932101B0935C
:1007C0002201BF91AF919F918F913F912F910F90F7
:1007D0000FBE0F901F901895ECE2F1E01382128289
:1007E00088EE93E0A0E0B0E084839583A683B7838E
:1007F0008AE091E09183808385EC90E095878487FF
:1008000084EC90E09787868780EC90E0918B808BDA
:1008100081EC90E0938B828B82EC90E0958B848BC3
:1008200086EC90E0978B868B118E128E138E148E31
:10083000E9ECF1E011821082138212821582148297
:1008400040E050E068E171E0CF010C947B02CF936F
:10085000DF9300D000D000D0CDB7DEB7789484B558
:10086000826084BD84B5816084BD85B5826085BDAC
:1008700085B5816085BD80916E00816080936E003A
:10088000109281008091810082608093810080912C
:1008900081008160809381008091800081608093DD
:1008A00080008091B10084608093B1008091B0009D
:1008B00081608093B00080917A00846080937A0098
:1008C00080917A00826080937A0080917A008160C2
:1008D00080937A0080917A00806880937A001092E9
:1008E000C10085E00E94880086E00E94880068ECD4
:1008F00070E089EC91E00E945402E0913C01F0919B
:100900003D0182E08083E0913801F091390110824D
:10091000E0913A01F0913B018FEC80831092440109
:10092000E0914001F091410186E08083E0913E0139
:10093000F0913F01808180618083E0913E01F091E0
:100940003F01808188608083E0913E01F0913F010A
:10095000808180688083E0913E01F0913F01808139
:100960008F7D808338EEE32E33E0F32E00912A0151
:1009700010912B0161E086E00E94A70161E070E028
:1009800080E090E00E94180260E086E00E94A701EB
:100990000C3A8FE3180764F40230110598F0C8018F
:1009A000880F991F880F991F05970197F1F70AC0C3
:1009B000C801B7010E94FE05072E000C880B990B99
:1009C0000E94180280912901882309F469C0A0902F
:1009D000CD01B090CE01A114B10409F461C01A8216
:1009E00019821C821B821E821D8240E050E068E159
:1009F00071E0CE0101960E947B020091CD01109121
:100A0000CE010230110538F1A016B10608F48501B7
:100A1000E091C901F091CA01E00FF11FB08010828E
:100A20006091C9017091CA016F5F7F4FE1F1FB01D5
:100A300001900020E9F73197AF01461B570BCE011B
:100A400001960E947B028091C9019091CA01FC012C
:100A5000E00FF11FB08209811A810115110581F1A2
:100A6000C8010E947F054B015C0180922501909294
:100A70002601A0922701B0922801C8010E94C10658
:100A80008091CD019091CE01892BF1F440E050E0AE
:100A900068E171E089EC91E00E947B0210922901EB
:100AA0000E94440363CF89819A81009711F00E94CC
:100AB000C1061A8219821E821D821C821B82C3CF2C
:100AC000812C912C5401D1CFE091C901F091CA0140
:100AD0003097E1F28081833529F49092240180924D
:100AE0002301D4CF823591F690922B0180922A0176
:100AF000CDCF8091C9019091CA010C94C1061F937A
:100B0000FC0199278827BC01E89411911032E9F380
:100B1000193010F01E30C8F31B3251F01D3249F469
:100B2000689406C00E94A605610F711D811D911D6C
:100B3000119110531A30B0F33EF490958095709552
:100B400061957F4F8F4F9F4F1F910895592F482FC9
:100B5000372F262F660F771F881F991F660F771F65
:100B6000881F991F620F731F841F951F660F771FC1
:100B7000881F991F089591110C94C405803219F0B3
:100B800089508550C8F708959927882708952F928E
:100B90003F924F925F926F927F928F929F92AF920D
:100BA000BF92CF92DF92EF92FF920F931F93CF935A
:100BB000DF93CDB7DEB7CA1BDB0B0FB6F894DEBFF1
:100BC0000FBECDBF09942A88398848885F846E8417
:100BD0007D848C849B84AA84B984C884DF80EE8061
:100BE000FD800C811B81AA81B981CE0FD11D0FB66A
:100BF000F894DEBF0FBECDBFED01089597FB072E21
:100C000016F4009407D077FD09D00E94120607FC65
:100C100005D03EF4909581959F4F0895709561950C
:100C20007F4F0895AA1BBB1B51E107C0AA1FBB1F22
:100C3000A617B70710F0A61BB70B881F991F5A9568
:100C4000A9F780959095BC01CD010895EE0FFF1F87
:100C50000590F491E02D0994CF93DF9382309105B4
:100C600010F482E090E0E091D101F091D20120E017
:100C700030E0C0E0D0E0309711F140815181481759
:100C80005907C0F04817590761F482819381209772
:100C900019F09B838A832BC09093D2018093D1015A
:100CA00026C02115310519F04217530718F49A018F
:100CB000BE01DF01EF010280F381E02DDCCF2115C1
:100CC000310509F1281B390B2430310590F41296B7
:100CD0008D919C9113976115710521F0FB01938310
:100CE000828304C09093D2018093D101FD0132969A
:100CF00044C0FD01E20FF31F81939193225031090B
:100D00002D933C933AC02091CF013091D001232BF9
:100D100041F420910201309103013093D0012093DE
:100D2000CF0120910001309101012115310541F4DD
:100D30002DB73EB74091040150910501241B350B9E
:100D4000E091CF01F091D001E217F307A0F42E1B40
:100D50003F0B2817390778F0AC014E5F5F4F24171F
:100D6000350748F04E0F5F1F5093D0014093CF01DD
:100D70008193919302C0E0E0F0E0CF01DF91CF9149
:100D800008950F931F93CF93DF93009709F48CC0BE
:100D9000FC013297138212820091D1011091D2018D
:100DA0000115110581F420813181820F931F20915B
:100DB000CF013091D0012817390779F5F093D00190
:100DC000E093CF0171C0D80140E050E0AE17BF07FB
:100DD00050F412962D913C911397AD0121153105D8
:100DE00009F1D901F3CF9D01DA01338322836081B8
:100DF0007181860F971F8217930769F4EC01288190
:100E00003981260F371F2E5F3F4F318320838A8120
:100E10009B8193838283452B29F4F093D201E09345
:100E2000D10142C01396FC93EE931297ED014991C4
:100E300059919E01240F351FE217F30771F4808149
:100E40009181840F951F029611969C938E938281B7
:100E5000938113969C938E931297E0E0F0E0D80173
:100E600012968D919C911397009719F0F8018C01BF
:100E7000F6CF8D919C9198012E5F3F4F820F931F6B
:100E80002091CF013091D0012817390769F43097AC
:100E900029F41092D2011092D10102C01382128261
:100EA0001093D0010093CF01DF91CF911F910F914B
:100EB0000895A0E0B0E0EFE5F7E00C94CB05EC017D
:100EC000009721F4CB010E942C06B8C0FC01E60F6C
:100ED000F71F9C0122503109E217F30708F4ACC058
:100EE000D9010D911C91119706171707B0F0053025
:100EF000110508F49FC0C80104978617970708F4E6
:100F000099C002501109061B170B019311936D93A1
:100F10007C93CF010E94C1068DC05B01A01AB10A6B
:100F20004C01800E911EA091D101B091D20140E000
:100F300050E0E12CF12C109709F44AC0A815B9052E
:100F4000D1F56D907C901197630182E0C80ED11CA1
:100F5000CA14DB0480F1A3014A195B096A0182E02B
:100F6000C80ED11C1296BC9012971396AC91B5E0A6
:100F7000CB16D10440F0B282A38351834083D901C0
:100F80006D937C930AC00E5F1F4FC301800F911FAA
:100F9000F90191838083EB2DFA2FE114F10431F0F4
:100FA000D7011396FC93EE93129744C0F093D201AD
:100FB000E093D1013FC08D919C911197481759073B
:100FC00008F4AC017D0112960D90BC91A02DB3CF19
:100FD0008091CF019091D00188159905E1F44617D1
:100FE0005707C8F48091000190910101009741F4E6
:100FF0008DB79EB74091040150910501841B950B5C
:10100000E817F907C8F4F093D001E093CF01F90194
:10101000718360830FC0CB010E942C067C01009776
:1010200059F0A801BE010E942808CE010E94C10605
:10103000C70104C0CE0102C080E090E0CDB7DEB7AA
:10104000EEE00C94E70581E090E0F8940C94380809
:10105000FB01DC0102C001900D9241505040D8F7D5
:101060000895FB01DC0101900D920020E1F7089545
:1010700010E0CDE5D0E004C0FE010E9426062196D6
:0A108000CE35D107C9F7F894FFCF71
:10108A000000D3018000000000003E01A700D60046
:0A109A0085010701E500F9000000E0
:00000001FF
